{
  "address": "0x9fE46736679d2D9a65F0992F2272dE9f3c7fa6e0",
  "abi": [
    {
      "inputs": [],
      "stateMutability": "nonpayable",
      "type": "constructor"
    },
    {
      "anonymous": false,
      "inputs": [
        {
          "indexed": true,
          "internalType": "address",
          "name": "owner",
          "type": "address"
        },
        {
          "indexed": true,
          "internalType": "address",
          "name": "spender",
          "type": "address"
        },
        {
          "indexed": false,
          "internalType": "uint256",
          "name": "value",
          "type": "uint256"
        }
      ],
      "name": "Approval",
      "type": "event"
    },
    {
      "anonymous": false,
      "inputs": [
        {
          "indexed": true,
          "internalType": "address",
          "name": "operator",
          "type": "address"
        },
        {
          "indexed": true,
          "internalType": "address",
          "name": "tokenHolder",
          "type": "address"
        }
      ],
      "name": "AuthorizedOperator",
      "type": "event"
    },
    {
      "anonymous": false,
      "inputs": [
        {
          "indexed": true,
          "internalType": "address",
          "name": "operator",
          "type": "address"
        },
        {
          "indexed": true,
          "internalType": "address",
          "name": "from",
          "type": "address"
        },
        {
          "indexed": false,
          "internalType": "uint256",
          "name": "amount",
          "type": "uint256"
        },
        {
          "indexed": false,
          "internalType": "bytes",
          "name": "data",
          "type": "bytes"
        },
        {
          "indexed": false,
          "internalType": "bytes",
          "name": "operatorData",
          "type": "bytes"
        }
      ],
      "name": "Burned",
      "type": "event"
    },
    {
      "anonymous": false,
      "inputs": [
        {
          "indexed": true,
          "internalType": "address",
          "name": "operator",
          "type": "address"
        },
        {
          "indexed": true,
          "internalType": "address",
          "name": "to",
          "type": "address"
        },
        {
          "indexed": false,
          "internalType": "uint256",
          "name": "amount",
          "type": "uint256"
        },
        {
          "indexed": false,
          "internalType": "bytes",
          "name": "data",
          "type": "bytes"
        },
        {
          "indexed": false,
          "internalType": "bytes",
          "name": "operatorData",
          "type": "bytes"
        }
      ],
      "name": "Minted",
      "type": "event"
    },
    {
      "anonymous": false,
      "inputs": [
        {
          "indexed": true,
          "internalType": "address",
          "name": "operator",
          "type": "address"
        },
        {
          "indexed": true,
          "internalType": "address",
          "name": "tokenHolder",
          "type": "address"
        }
      ],
      "name": "RevokedOperator",
      "type": "event"
    },
    {
      "anonymous": false,
      "inputs": [
        {
          "indexed": true,
          "internalType": "address",
          "name": "operator",
          "type": "address"
        },
        {
          "indexed": true,
          "internalType": "address",
          "name": "from",
          "type": "address"
        },
        {
          "indexed": true,
          "internalType": "address",
          "name": "to",
          "type": "address"
        },
        {
          "indexed": false,
          "internalType": "uint256",
          "name": "amount",
          "type": "uint256"
        },
        {
          "indexed": false,
          "internalType": "bytes",
          "name": "data",
          "type": "bytes"
        },
        {
          "indexed": false,
          "internalType": "bytes",
          "name": "operatorData",
          "type": "bytes"
        }
      ],
      "name": "Sent",
      "type": "event"
    },
    {
      "anonymous": false,
      "inputs": [
        {
          "indexed": true,
          "internalType": "address",
          "name": "from",
          "type": "address"
        },
        {
          "indexed": true,
          "internalType": "address",
          "name": "to",
          "type": "address"
        },
        {
          "indexed": false,
          "internalType": "uint256",
          "name": "value",
          "type": "uint256"
        }
      ],
      "name": "Transfer",
      "type": "event"
    },
    {
      "inputs": [
        {
          "internalType": "address",
          "name": "holder",
          "type": "address"
        },
        {
          "internalType": "address",
          "name": "spender",
          "type": "address"
        }
      ],
      "name": "allowance",
      "outputs": [
        {
          "internalType": "uint256",
          "name": "",
          "type": "uint256"
        }
      ],
      "stateMutability": "view",
      "type": "function"
    },
    {
      "inputs": [
        {
          "internalType": "address",
          "name": "spender",
          "type": "address"
        },
        {
          "internalType": "uint256",
          "name": "value",
          "type": "uint256"
        }
      ],
      "name": "approve",
      "outputs": [
        {
          "internalType": "bool",
          "name": "",
          "type": "bool"
        }
      ],
      "stateMutability": "nonpayable",
      "type": "function"
    },
    {
      "inputs": [
        {
          "internalType": "address",
          "name": "operator",
          "type": "address"
        }
      ],
      "name": "authorizeOperator",
      "outputs": [],
      "stateMutability": "nonpayable",
      "type": "function"
    },
    {
      "inputs": [
        {
          "internalType": "address",
          "name": "tokenHolder",
          "type": "address"
        }
      ],
      "name": "balanceOf",
      "outputs": [
        {
          "internalType": "uint256",
          "name": "",
          "type": "uint256"
        }
      ],
      "stateMutability": "view",
      "type": "function"
    },
    {
      "inputs": [
        {
          "internalType": "uint256",
          "name": "amount",
          "type": "uint256"
        },
        {
          "internalType": "bytes",
          "name": "data",
          "type": "bytes"
        }
      ],
      "name": "burn",
      "outputs": [],
      "stateMutability": "nonpayable",
      "type": "function"
    },
    {
      "inputs": [],
      "name": "decimals",
      "outputs": [
        {
          "internalType": "uint8",
          "name": "",
          "type": "uint8"
        }
      ],
      "stateMutability": "pure",
      "type": "function"
    },
    {
      "inputs": [],
      "name": "defaultOperators",
      "outputs": [
        {
          "internalType": "address[]",
          "name": "",
          "type": "address[]"
        }
      ],
      "stateMutability": "view",
      "type": "function"
    },
    {
      "inputs": [],
      "name": "granularity",
      "outputs": [
        {
          "internalType": "uint256",
          "name": "",
          "type": "uint256"
        }
      ],
      "stateMutability": "view",
      "type": "function"
    },
    {
      "inputs": [
        {
          "internalType": "address",
          "name": "operator",
          "type": "address"
        },
        {
          "internalType": "address",
          "name": "tokenHolder",
          "type": "address"
        }
      ],
      "name": "isOperatorFor",
      "outputs": [
        {
          "internalType": "bool",
          "name": "",
          "type": "bool"
        }
      ],
      "stateMutability": "view",
      "type": "function"
    },
    {
      "inputs": [
        {
          "internalType": "address",
          "name": "account",
          "type": "address"
        },
        {
          "internalType": "uint256",
          "name": "amount",
          "type": "uint256"
        },
        {
          "internalType": "bytes",
          "name": "userData",
          "type": "bytes"
        },
        {
          "internalType": "bytes",
          "name": "operatorData",
          "type": "bytes"
        }
      ],
      "name": "mint",
      "outputs": [],
      "stateMutability": "nonpayable",
      "type": "function"
    },
    {
      "inputs": [],
      "name": "name",
      "outputs": [
        {
          "internalType": "string",
          "name": "",
          "type": "string"
        }
      ],
      "stateMutability": "view",
      "type": "function"
    },
    {
      "inputs": [
        {
          "internalType": "address",
          "name": "account",
          "type": "address"
        },
        {
          "internalType": "uint256",
          "name": "amount",
          "type": "uint256"
        },
        {
          "internalType": "bytes",
          "name": "data",
          "type": "bytes"
        },
        {
          "internalType": "bytes",
          "name": "operatorData",
          "type": "bytes"
        }
      ],
      "name": "operatorBurn",
      "outputs": [],
      "stateMutability": "nonpayable",
      "type": "function"
    },
    {
      "inputs": [
        {
          "internalType": "address",
          "name": "sender",
          "type": "address"
        },
        {
          "internalType": "address",
          "name": "recipient",
          "type": "address"
        },
        {
          "internalType": "uint256",
          "name": "amount",
          "type": "uint256"
        },
        {
          "internalType": "bytes",
          "name": "data",
          "type": "bytes"
        },
        {
          "internalType": "bytes",
          "name": "operatorData",
          "type": "bytes"
        }
      ],
      "name": "operatorSend",
      "outputs": [],
      "stateMutability": "nonpayable",
      "type": "function"
    },
    {
      "inputs": [
        {
          "internalType": "address",
          "name": "operator",
          "type": "address"
        }
      ],
      "name": "revokeOperator",
      "outputs": [],
      "stateMutability": "nonpayable",
      "type": "function"
    },
    {
      "inputs": [
        {
          "internalType": "address",
          "name": "recipient",
          "type": "address"
        },
        {
          "internalType": "uint256",
          "name": "amount",
          "type": "uint256"
        },
        {
          "internalType": "bytes",
          "name": "data",
          "type": "bytes"
        }
      ],
      "name": "send",
      "outputs": [],
      "stateMutability": "nonpayable",
      "type": "function"
    },
    {
      "inputs": [],
      "name": "symbol",
      "outputs": [
        {
          "internalType": "string",
          "name": "",
          "type": "string"
        }
      ],
      "stateMutability": "view",
      "type": "function"
    },
    {
      "inputs": [],
      "name": "totalSupply",
      "outputs": [
        {
          "internalType": "uint256",
          "name": "",
          "type": "uint256"
        }
      ],
      "stateMutability": "view",
      "type": "function"
    },
    {
      "inputs": [
        {
          "internalType": "address",
          "name": "recipient",
          "type": "address"
        },
        {
          "internalType": "uint256",
          "name": "amount",
          "type": "uint256"
        }
      ],
      "name": "transfer",
      "outputs": [
        {
          "internalType": "bool",
          "name": "",
          "type": "bool"
        }
      ],
      "stateMutability": "nonpayable",
      "type": "function"
    },
    {
      "inputs": [
        {
          "internalType": "address",
          "name": "holder",
          "type": "address"
        },
        {
          "internalType": "address",
          "name": "recipient",
          "type": "address"
        },
        {
          "internalType": "uint256",
          "name": "amount",
          "type": "uint256"
        }
      ],
      "name": "transferFrom",
      "outputs": [
        {
          "internalType": "bool",
          "name": "",
          "type": "bool"
        }
      ],
      "stateMutability": "nonpayable",
      "type": "function"
    }
  ],
  "transactionHash": "0xea5612f9b8fbc5f36495a6cc72c32e1978fbf7adaf35943a6a00138f9329613e",
  "args": [],
  "numDeployments": 1,
  "solcInputHash": "e85e81969cff034045dc1802e9d53758",
  "bytecode": "0x60806040523480156200001157600080fd5b506040518060400160405280600581526020017f53484152450000000000000000000000000000000000000000000000000000008152506040518060400160405280600581526020017f5368617265000000000000000000000000000000000000000000000000000000815250600167ffffffffffffffff8111156200009c576200009b62000446565b5b604051908082528060200260200182016040528015620000cb5781602001602082028036833780820191505090505b508260029080519060200190620000e492919062000307565b508160039080519060200190620000fd92919062000307565b5080600490805190602001906200011692919062000398565b5060005b8151811015620001af5760016005600084848151811062000140576200013f62000475565b5b602002602001015173ffffffffffffffffffffffffffffffffffffffff1673ffffffffffffffffffffffffffffffffffffffff16815260200190815260200160002060006101000a81548160ff0219169083151502179055508080620001a690620004dd565b9150506200011a565b50731820a4b7618bde71dce8cdc73aab6c95905fad2473ffffffffffffffffffffffffffffffffffffffff166329965a1d307fac7fbab5f54a3ca8194167523c6753bfeb96a445279294b6125b68cce2177054306040518463ffffffff1660e01b815260040162000223939291906200058a565b600060405180830381600087803b1580156200023e57600080fd5b505af115801562000253573d6000803e3d6000fd5b50505050731820a4b7618bde71dce8cdc73aab6c95905fad2473ffffffffffffffffffffffffffffffffffffffff166329965a1d307faea199e31a596269b42cdafd93407f14436db6e4cad65417994c2eb37381e05a306040518463ffffffff1660e01b8152600401620002ca939291906200058a565b600060405180830381600087803b158015620002e557600080fd5b505af1158015620002fa573d6000803e3d6000fd5b505050505050506200062b565b8280546200031590620005f6565b90600052602060002090601f01602090048101928262000339576000855562000385565b82601f106200035457805160ff191683800117855562000385565b8280016001018555821562000385579182015b828111156200038457825182559160200191906001019062000367565b5b50905062000394919062000427565b5090565b82805482825590600052602060002090810192821562000414579160200282015b82811115620004135782518260006101000a81548173ffffffffffffffffffffffffffffffffffffffff021916908373ffffffffffffffffffffffffffffffffffffffff16021790555091602001919060010190620003b9565b5b50905062000423919062000427565b5090565b5b808211156200044257600081600090555060010162000428565b5090565b7f4e487b7100000000000000000000000000000000000000000000000000000000600052604160045260246000fd5b7f4e487b7100000000000000000000000000000000000000000000000000000000600052603260045260246000fd5b7f4e487b7100000000000000000000000000000000000000000000000000000000600052601160045260246000fd5b6000819050919050565b6000620004ea82620004d3565b91507fffffffffffffffffffffffffffffffffffffffffffffffffffffffffffffffff82036200051f576200051e620004a4565b5b600182019050919050565b600073ffffffffffffffffffffffffffffffffffffffff82169050919050565b600062000557826200052a565b9050919050565b62000569816200054a565b82525050565b6000819050919050565b62000584816200056f565b82525050565b6000606082019050620005a160008301866200055e565b620005b0602083018562000579565b620005bf60408301846200055e565b949350505050565b7f4e487b7100000000000000000000000000000000000000000000000000000000600052602260045260246000fd5b600060028204905060018216806200060f57607f821691505b602082108103620006255762000624620005c7565b5b50919050565b612d2d806200063b6000396000f3fe608060405234801561001057600080fd5b50600436106101215760003560e01c8063959b8c3f116100ad578063dcdc7dd011610071578063dcdc7dd01461031e578063dd62ed3e1461033a578063fad8b32a1461036a578063fc673c4f14610386578063fe9d9303146103a257610121565b8063959b8c3f1461026857806395d89b41146102845780639bd9bbc6146102a2578063a9059cbb146102be578063d95b6371146102ee57610121565b806323b872dd116100f457806323b872dd146101b0578063313ce567146101e0578063556f0dc7146101fe57806362ad1b831461021c57806370a082311461023857610121565b806306e485381461012657806306fdde0314610144578063095ea7b31461016257806318160ddd14610192575b600080fd5b61012e6103be565b60405161013b9190611cc2565b60405180910390f35b61014c61044c565b6040516101599190611d7d565b60405180910390f35b61017c60048036038101906101779190611e15565b6104de565b6040516101899190611e70565b60405180910390f35b61019a610501565b6040516101a79190611e9a565b60405180910390f35b6101ca60048036038101906101c59190611eb5565b61050b565b6040516101d79190611e70565b60405180910390f35b6101e861055c565b6040516101f59190611f24565b60405180910390f35b610206610565565b6040516102139190611e9a565b60405180910390f35b61023660048036038101906102319190612074565b61056e565b005b610252600480360381019061024d9190612127565b6105d4565b60405161025f9190611e9a565b60405180910390f35b610282600480360381019061027d9190612127565b61061c565b005b61028c61087c565b6040516102999190611d7d565b60405180910390f35b6102bc60048036038101906102b79190612154565b61090e565b005b6102d860048036038101906102d39190611e15565b610938565b6040516102e59190611e70565b60405180910390f35b610308600480360381019061030391906121c3565b610978565b6040516103159190611e70565b60405180910390f35b61033860048036038101906103339190612203565b610b29565b005b610354600480360381019061034f91906121c3565b610b3d565b6040516103619190611e9a565b60405180910390f35b610384600480360381019061037f9190612127565b610bc4565b005b6103a0600480360381019061039b9190612203565b610e24565b005b6103bc60048036038101906103b791906122a2565b610e86565b005b6060600480548060200260200160405190810160405280929190818152602001828054801561044257602002820191906000526020600020905b8160009054906101000a900473ffffffffffffffffffffffffffffffffffffffff1673ffffffffffffffffffffffffffffffffffffffff16815260200190600101908083116103f8575b5050505050905090565b60606002805461045b9061232d565b80601f01602080910402602001604051908101604052809291908181526020018280546104879061232d565b80156104d45780601f106104a9576101008083540402835291602001916104d4565b820191906000526020600020905b8154815290600101906020018083116104b757829003601f168201915b5050505050905090565b6000806104e9610eac565b90506104f6818585610eb4565b600191505092915050565b6000600154905090565b600080610516610eac565b905061052385828561107d565b61055085858560405180602001604052806000815250604051806020016040528060008152506000611109565b60019150509392505050565b60006012905090565b60006001905090565b61057f610579610eac565b86610978565b6105be576040517f08c379a00000000000000000000000000000000000000000000000000000000081526004016105b5906123d0565b60405180910390fd5b6105cd85858585856001611109565b5050505050565b60008060008373ffffffffffffffffffffffffffffffffffffffff1673ffffffffffffffffffffffffffffffffffffffff168152602001908152602001600020549050919050565b8073ffffffffffffffffffffffffffffffffffffffff1661063b610eac565b73ffffffffffffffffffffffffffffffffffffffff1603610691576040517f08c379a000000000000000000000000000000000000000000000000000000000815260040161068890612462565b60405180910390fd5b600560008273ffffffffffffffffffffffffffffffffffffffff1673ffffffffffffffffffffffffffffffffffffffff16815260200190815260200160002060009054906101000a900460ff161561077b57600760006106ef610eac565b73ffffffffffffffffffffffffffffffffffffffff1673ffffffffffffffffffffffffffffffffffffffff16815260200190815260200160002060008273ffffffffffffffffffffffffffffffffffffffff1673ffffffffffffffffffffffffffffffffffffffff16815260200190815260200160002060006101000a81549060ff0219169055610818565b600160066000610789610eac565b73ffffffffffffffffffffffffffffffffffffffff1673ffffffffffffffffffffffffffffffffffffffff16815260200190815260200160002060008373ffffffffffffffffffffffffffffffffffffffff1673ffffffffffffffffffffffffffffffffffffffff16815260200190815260200160002060006101000a81548160ff0219169083151502179055505b610820610eac565b73ffffffffffffffffffffffffffffffffffffffff168173ffffffffffffffffffffffffffffffffffffffff167ff4caeb2d6ca8932a215a353d0703c326ec2d81fc68170f320eb2ab49e9df61f960405160405180910390a350565b60606003805461088b9061232d565b80601f01602080910402602001604051908101604052809291908181526020018280546108b79061232d565b80156109045780601f106108d957610100808354040283529160200191610904565b820191906000526020600020905b8154815290600101906020018083116108e757829003601f168201915b5050505050905090565b610933610919610eac565b848484604051806020016040528060008152506001611109565b505050565b600061096e610945610eac565b848460405180602001604052806000815250604051806020016040528060008152506000611109565b6001905092915050565b60008173ffffffffffffffffffffffffffffffffffffffff168373ffffffffffffffffffffffffffffffffffffffff161480610a905750600560008473ffffffffffffffffffffffffffffffffffffffff1673ffffffffffffffffffffffffffffffffffffffff16815260200190815260200160002060009054906101000a900460ff168015610a8f5750600760008373ffffffffffffffffffffffffffffffffffffffff1673ffffffffffffffffffffffffffffffffffffffff16815260200190815260200160002060008473ffffffffffffffffffffffffffffffffffffffff1673ffffffffffffffffffffffffffffffffffffffff16815260200190815260200160002060009054906101000a900460ff16155b5b80610b215750600660008373ffffffffffffffffffffffffffffffffffffffff1673ffffffffffffffffffffffffffffffffffffffff16815260200190815260200160002060008473ffffffffffffffffffffffffffffffffffffffff1673ffffffffffffffffffffffffffffffffffffffff16815260200190815260200160002060009054906101000a900460ff165b905092915050565b610b37848484846001611227565b50505050565b6000600860008473ffffffffffffffffffffffffffffffffffffffff1673ffffffffffffffffffffffffffffffffffffffff16815260200190815260200160002060008373ffffffffffffffffffffffffffffffffffffffff1673ffffffffffffffffffffffffffffffffffffffff16815260200190815260200160002054905092915050565b610bcc610eac565b73ffffffffffffffffffffffffffffffffffffffff168173ffffffffffffffffffffffffffffffffffffffff1603610c39576040517f08c379a0000000000000000000000000000000000000000000000000000000008152600401610c30906124f4565b60405180910390fd5b600560008273ffffffffffffffffffffffffffffffffffffffff1673ffffffffffffffffffffffffffffffffffffffff16815260200190815260200160002060009054906101000a900460ff1615610d2c57600160076000610c99610eac565b73ffffffffffffffffffffffffffffffffffffffff1673ffffffffffffffffffffffffffffffffffffffff16815260200190815260200160002060008373ffffffffffffffffffffffffffffffffffffffff1673ffffffffffffffffffffffffffffffffffffffff16815260200190815260200160002060006101000a81548160ff021916908315150217905550610dc0565b60066000610d38610eac565b73ffffffffffffffffffffffffffffffffffffffff1673ffffffffffffffffffffffffffffffffffffffff16815260200190815260200160002060008273ffffffffffffffffffffffffffffffffffffffff1673ffffffffffffffffffffffffffffffffffffffff16815260200190815260200160002060006101000a81549060ff02191690555b610dc8610eac565b73ffffffffffffffffffffffffffffffffffffffff168173ffffffffffffffffffffffffffffffffffffffff167f50546e66e5f44d728365dc3908c63bc5cfeeab470722c1677e3073a6ac294aa160405160405180910390a350565b610e35610e2f610eac565b85610978565b610e74576040517f08c379a0000000000000000000000000000000000000000000000000000000008152600401610e6b906123d0565b60405180910390fd5b610e8084848484611404565b50505050565b610ea8610e91610eac565b838360405180602001604052806000815250611404565b5050565b600033905090565b600073ffffffffffffffffffffffffffffffffffffffff168373ffffffffffffffffffffffffffffffffffffffff1603610f23576040517f08c379a0000000000000000000000000000000000000000000000000000000008152600401610f1a90612586565b60405180910390fd5b600073ffffffffffffffffffffffffffffffffffffffff168273ffffffffffffffffffffffffffffffffffffffff1603610f92576040517f08c379a0000000000000000000000000000000000000000000000000000000008152600401610f8990612618565b60405180910390fd5b80600860008573ffffffffffffffffffffffffffffffffffffffff1673ffffffffffffffffffffffffffffffffffffffff16815260200190815260200160002060008473ffffffffffffffffffffffffffffffffffffffff1673ffffffffffffffffffffffffffffffffffffffff168152602001908152602001600020819055508173ffffffffffffffffffffffffffffffffffffffff168373ffffffffffffffffffffffffffffffffffffffff167f8c5be1e5ebec7d5bd14f71427d1e84f3dd0314c0f7b2291e5b200ac8c7c3b925836040516110709190611e9a565b60405180910390a3505050565b60006110898484610b3d565b90507fffffffffffffffffffffffffffffffffffffffffffffffffffffffffffffffff811461110357818110156110f5576040517f08c379a00000000000000000000000000000000000000000000000000000000081526004016110ec90612684565b60405180910390fd5b6111028484848403610eb4565b5b50505050565b600073ffffffffffffffffffffffffffffffffffffffff168673ffffffffffffffffffffffffffffffffffffffff1603611178576040517f08c379a000000000000000000000000000000000000000000000000000000000815260040161116f90612716565b60405180910390fd5b600073ffffffffffffffffffffffffffffffffffffffff168573ffffffffffffffffffffffffffffffffffffffff16036111e7576040517f08c379a00000000000000000000000000000000000000000000000000000000081526004016111de906127a8565b60405180910390fd5b60006111f1610eac565b9050611201818888888888611656565b61120f8188888888886117bd565b61121e818888888888886119d7565b50505050505050565b600073ffffffffffffffffffffffffffffffffffffffff168573ffffffffffffffffffffffffffffffffffffffff1603611296576040517f08c379a000000000000000000000000000000000000000000000000000000000815260040161128d90612814565b60405180910390fd5b60006112a0610eac565b90506112af8160008888611ba9565b84600160008282546112c19190612863565b92505081905550846000808873ffffffffffffffffffffffffffffffffffffffff1673ffffffffffffffffffffffffffffffffffffffff16815260200190815260200160002060008282546113169190612863565b9250508190555061132d81600088888888886119d7565b8573ffffffffffffffffffffffffffffffffffffffff168173ffffffffffffffffffffffffffffffffffffffff167f2fe5be0146f74c5bce36c0b80911af6c7d86ff27e89d5cfa61fc681327954e5d87878760405161138e9392919061290e565b60405180910390a38573ffffffffffffffffffffffffffffffffffffffff16600073ffffffffffffffffffffffffffffffffffffffff167fddf252ad1be2c89b69c2b068fc378daa952ba7f163c4a11628f55a4df523b3ef876040516113f49190611e9a565b60405180910390a3505050505050565b600073ffffffffffffffffffffffffffffffffffffffff168473ffffffffffffffffffffffffffffffffffffffff1603611473576040517f08c379a000000000000000000000000000000000000000000000000000000000815260040161146a906129c5565b60405180910390fd5b600061147d610eac565b905061148e81866000878787611656565b61149b8186600087611ba9565b60008060008773ffffffffffffffffffffffffffffffffffffffff1673ffffffffffffffffffffffffffffffffffffffff16815260200190815260200160002054905084811015611521576040517f08c379a000000000000000000000000000000000000000000000000000000000815260040161151890612a57565b60405180910390fd5b8481036000808873ffffffffffffffffffffffffffffffffffffffff1673ffffffffffffffffffffffffffffffffffffffff1681526020019081526020016000208190555084600160008282546115789190612a77565b925050819055508573ffffffffffffffffffffffffffffffffffffffff168273ffffffffffffffffffffffffffffffffffffffff167fa78a9be3a7b862d26933ad85fb11d80ef66b8f972d7cbba06621d583943a40988787876040516115e09392919061290e565b60405180910390a3600073ffffffffffffffffffffffffffffffffffffffff168673ffffffffffffffffffffffffffffffffffffffff167fddf252ad1be2c89b69c2b068fc378daa952ba7f163c4a11628f55a4df523b3ef876040516116469190611e9a565b60405180910390a3505050505050565b6000731820a4b7618bde71dce8cdc73aab6c95905fad2473ffffffffffffffffffffffffffffffffffffffff1663aabbb8ca877f29ddb589b1fb5fc7cf394961c1adf5f8c6454761adf795e67fe149f658abe8956040518363ffffffff1660e01b81526004016116c7929190612ad3565b602060405180830381865afa1580156116e4573d6000803e3d6000fd5b505050506040513d601f19601f820116820180604052508101906117089190612b11565b9050600073ffffffffffffffffffffffffffffffffffffffff168173ffffffffffffffffffffffffffffffffffffffff16146117b4578073ffffffffffffffffffffffffffffffffffffffff166375ab97828888888888886040518763ffffffff1660e01b815260040161178196959493929190612b3e565b600060405180830381600087803b15801561179b57600080fd5b505af11580156117af573d6000803e3d6000fd5b505050505b50505050505050565b6117c986868686611ba9565b60008060008773ffffffffffffffffffffffffffffffffffffffff1673ffffffffffffffffffffffffffffffffffffffff1681526020019081526020016000205490508381101561184f576040517f08c379a000000000000000000000000000000000000000000000000000000000815260040161184690612c1f565b60405180910390fd5b8381036000808873ffffffffffffffffffffffffffffffffffffffff1673ffffffffffffffffffffffffffffffffffffffff16815260200190815260200160002081905550836000808773ffffffffffffffffffffffffffffffffffffffff1673ffffffffffffffffffffffffffffffffffffffff16815260200190815260200160002060008282546118e29190612863565b925050819055508473ffffffffffffffffffffffffffffffffffffffff168673ffffffffffffffffffffffffffffffffffffffff168873ffffffffffffffffffffffffffffffffffffffff167f06b541ddaa720db2b10a4d0cdac39b8d360425fc073085fac19bc826146779878787876040516119619392919061290e565b60405180910390a48473ffffffffffffffffffffffffffffffffffffffff168673ffffffffffffffffffffffffffffffffffffffff167fddf252ad1be2c89b69c2b068fc378daa952ba7f163c4a11628f55a4df523b3ef866040516119c69190611e9a565b60405180910390a350505050505050565b6000731820a4b7618bde71dce8cdc73aab6c95905fad2473ffffffffffffffffffffffffffffffffffffffff1663aabbb8ca877fb281fc8c12954d22544db45de3159a39272895b169a852b314f9cc762e44c53b6040518363ffffffff1660e01b8152600401611a48929190612ad3565b602060405180830381865afa158015611a65573d6000803e3d6000fd5b505050506040513d601f19601f82011682018060405250810190611a899190612b11565b9050600073ffffffffffffffffffffffffffffffffffffffff168173ffffffffffffffffffffffffffffffffffffffff1614611b38578073ffffffffffffffffffffffffffffffffffffffff166223de298989898989896040518763ffffffff1660e01b8152600401611b0196959493929190612b3e565b600060405180830381600087803b158015611b1b57600080fd5b505af1158015611b2f573d6000803e3d6000fd5b50505050611b9f565b8115611b9e57611b5d8673ffffffffffffffffffffffffffffffffffffffff16611baf565b15611b9d576040517f08c379a0000000000000000000000000000000000000000000000000000000008152600401611b9490612cd7565b60405180910390fd5b5b5b5050505050505050565b50505050565b6000808273ffffffffffffffffffffffffffffffffffffffff163b119050919050565b600081519050919050565b600082825260208201905092915050565b6000819050602082019050919050565b600073ffffffffffffffffffffffffffffffffffffffff82169050919050565b6000611c2982611bfe565b9050919050565b611c3981611c1e565b82525050565b6000611c4b8383611c30565b60208301905092915050565b6000602082019050919050565b6000611c6f82611bd2565b611c798185611bdd565b9350611c8483611bee565b8060005b83811015611cb5578151611c9c8882611c3f565b9750611ca783611c57565b925050600181019050611c88565b5085935050505092915050565b60006020820190508181036000830152611cdc8184611c64565b905092915050565b600081519050919050565b600082825260208201905092915050565b60005b83811015611d1e578082015181840152602081019050611d03565b83811115611d2d576000848401525b50505050565b6000601f19601f8301169050919050565b6000611d4f82611ce4565b611d598185611cef565b9350611d69818560208601611d00565b611d7281611d33565b840191505092915050565b60006020820190508181036000830152611d978184611d44565b905092915050565b6000604051905090565b600080fd5b600080fd5b611dbc81611c1e565b8114611dc757600080fd5b50565b600081359050611dd981611db3565b92915050565b6000819050919050565b611df281611ddf565b8114611dfd57600080fd5b50565b600081359050611e0f81611de9565b92915050565b60008060408385031215611e2c57611e2b611da9565b5b6000611e3a85828601611dca565b9250506020611e4b85828601611e00565b9150509250929050565b60008115159050919050565b611e6a81611e55565b82525050565b6000602082019050611e856000830184611e61565b92915050565b611e9481611ddf565b82525050565b6000602082019050611eaf6000830184611e8b565b92915050565b600080600060608486031215611ece57611ecd611da9565b5b6000611edc86828701611dca565b9350506020611eed86828701611dca565b9250506040611efe86828701611e00565b9150509250925092565b600060ff82169050919050565b611f1e81611f08565b82525050565b6000602082019050611f396000830184611f15565b92915050565b600080fd5b600080fd5b7f4e487b7100000000000000000000000000000000000000000000000000000000600052604160045260246000fd5b611f8182611d33565b810181811067ffffffffffffffff82111715611fa057611f9f611f49565b5b80604052505050565b6000611fb3611d9f565b9050611fbf8282611f78565b919050565b600067ffffffffffffffff821115611fdf57611fde611f49565b5b611fe882611d33565b9050602081019050919050565b82818337600083830152505050565b600061201761201284611fc4565b611fa9565b90508281526020810184848401111561203357612032611f44565b5b61203e848285611ff5565b509392505050565b600082601f83011261205b5761205a611f3f565b5b813561206b848260208601612004565b91505092915050565b600080600080600060a086880312156120905761208f611da9565b5b600061209e88828901611dca565b95505060206120af88828901611dca565b94505060406120c088828901611e00565b935050606086013567ffffffffffffffff8111156120e1576120e0611dae565b5b6120ed88828901612046565b925050608086013567ffffffffffffffff81111561210e5761210d611dae565b5b61211a88828901612046565b9150509295509295909350565b60006020828403121561213d5761213c611da9565b5b600061214b84828501611dca565b91505092915050565b60008060006060848603121561216d5761216c611da9565b5b600061217b86828701611dca565b935050602061218c86828701611e00565b925050604084013567ffffffffffffffff8111156121ad576121ac611dae565b5b6121b986828701612046565b9150509250925092565b600080604083850312156121da576121d9611da9565b5b60006121e885828601611dca565b92505060206121f985828601611dca565b9150509250929050565b6000806000806080858703121561221d5761221c611da9565b5b600061222b87828801611dca565b945050602061223c87828801611e00565b935050604085013567ffffffffffffffff81111561225d5761225c611dae565b5b61226987828801612046565b925050606085013567ffffffffffffffff81111561228a57612289611dae565b5b61229687828801612046565b91505092959194509250565b600080604083850312156122b9576122b8611da9565b5b60006122c785828601611e00565b925050602083013567ffffffffffffffff8111156122e8576122e7611dae565b5b6122f485828601612046565b9150509250929050565b7f4e487b7100000000000000000000000000000000000000000000000000000000600052602260045260246000fd5b6000600282049050600182168061234557607f821691505b602082108103612358576123576122fe565b5b50919050565b7f4552433737373a2063616c6c6572206973206e6f7420616e206f70657261746f60008201527f7220666f7220686f6c6465720000000000000000000000000000000000000000602082015250565b60006123ba602c83611cef565b91506123c58261235e565b604082019050919050565b600060208201905081810360008301526123e9816123ad565b9050919050565b7f4552433737373a20617574686f72697a696e672073656c66206173206f70657260008201527f61746f7200000000000000000000000000000000000000000000000000000000602082015250565b600061244c602483611cef565b9150612457826123f0565b604082019050919050565b6000602082019050818103600083015261247b8161243f565b9050919050565b7f4552433737373a207265766f6b696e672073656c66206173206f70657261746f60008201527f7200000000000000000000000000000000000000000000000000000000000000602082015250565b60006124de602183611cef565b91506124e982612482565b604082019050919050565b6000602082019050818103600083015261250d816124d1565b9050919050565b7f4552433737373a20617070726f76652066726f6d20746865207a65726f20616460008201527f6472657373000000000000000000000000000000000000000000000000000000602082015250565b6000612570602583611cef565b915061257b82612514565b604082019050919050565b6000602082019050818103600083015261259f81612563565b9050919050565b7f4552433737373a20617070726f766520746f20746865207a65726f206164647260008201527f6573730000000000000000000000000000000000000000000000000000000000602082015250565b6000612602602383611cef565b915061260d826125a6565b604082019050919050565b60006020820190508181036000830152612631816125f5565b9050919050565b7f4552433737373a20696e73756666696369656e7420616c6c6f77616e63650000600082015250565b600061266e601e83611cef565b915061267982612638565b602082019050919050565b6000602082019050818103600083015261269d81612661565b9050919050565b7f4552433737373a207472616e736665722066726f6d20746865207a65726f206160008201527f6464726573730000000000000000000000000000000000000000000000000000602082015250565b6000612700602683611cef565b915061270b826126a4565b604082019050919050565b6000602082019050818103600083015261272f816126f3565b9050919050565b7f4552433737373a207472616e7366657220746f20746865207a65726f2061646460008201527f7265737300000000000000000000000000000000000000000000000000000000602082015250565b6000612792602483611cef565b915061279d82612736565b604082019050919050565b600060208201905081810360008301526127c181612785565b9050919050565b7f4552433737373a206d696e7420746f20746865207a65726f2061646472657373600082015250565b60006127fe602083611cef565b9150612809826127c8565b602082019050919050565b6000602082019050818103600083015261282d816127f1565b9050919050565b7f4e487b7100000000000000000000000000000000000000000000000000000000600052601160045260246000fd5b600061286e82611ddf565b915061287983611ddf565b9250827fffffffffffffffffffffffffffffffffffffffffffffffffffffffffffffffff038211156128ae576128ad612834565b5b828201905092915050565b600081519050919050565b600082825260208201905092915050565b60006128e0826128b9565b6128ea81856128c4565b93506128fa818560208601611d00565b61290381611d33565b840191505092915050565b60006060820190506129236000830186611e8b565b818103602083015261293581856128d5565b9050818103604083015261294981846128d5565b9050949350505050565b7f4552433737373a206275726e2066726f6d20746865207a65726f20616464726560008201527f7373000000000000000000000000000000000000000000000000000000000000602082015250565b60006129af602283611cef565b91506129ba82612953565b604082019050919050565b600060208201905081810360008301526129de816129a2565b9050919050565b7f4552433737373a206275726e20616d6f756e7420657863656564732062616c6160008201527f6e63650000000000000000000000000000000000000000000000000000000000602082015250565b6000612a41602383611cef565b9150612a4c826129e5565b604082019050919050565b60006020820190508181036000830152612a7081612a34565b9050919050565b6000612a8282611ddf565b9150612a8d83611ddf565b925082821015612aa057612a9f612834565b5b828203905092915050565b612ab481611c1e565b82525050565b6000819050919050565b612acd81612aba565b82525050565b6000604082019050612ae86000830185612aab565b612af56020830184612ac4565b9392505050565b600081519050612b0b81611db3565b92915050565b600060208284031215612b2757612b26611da9565b5b6000612b3584828501612afc565b91505092915050565b600060c082019050612b536000830189612aab565b612b606020830188612aab565b612b6d6040830187612aab565b612b7a6060830186611e8b565b8181036080830152612b8c81856128d5565b905081810360a0830152612ba081846128d5565b9050979650505050505050565b7f4552433737373a207472616e7366657220616d6f756e7420657863656564732060008201527f62616c616e636500000000000000000000000000000000000000000000000000602082015250565b6000612c09602783611cef565b9150612c1482612bad565b604082019050919050565b60006020820190508181036000830152612c3881612bfc565b9050919050565b7f4552433737373a20746f6b656e20726563697069656e7420636f6e747261637460008201527f20686173206e6f20696d706c656d656e74657220666f7220455243373737546f60208201527f6b656e73526563697069656e7400000000000000000000000000000000000000604082015250565b6000612cc1604d83611cef565b9150612ccc82612c3f565b606082019050919050565b60006020820190508181036000830152612cf081612cb4565b905091905056fea2646970667358221220eeb1337c77f15947a87bacb936941fbea67503526dbb309d716d42a283bc855064736f6c634300080d0033",
  "devdoc": {
    "kind": "dev",
    "methods": {
      "allowance(address,address)": {
        "details": "See {IERC20-allowance}. Note that operator and allowance concepts are orthogonal: operators may not have allowance, and accounts with allowance may not be operators themselves."
      },
      "approve(address,uint256)": {
        "details": "See {IERC20-approve}. NOTE: If `value` is the maximum `uint256`, the allowance is not updated on `transferFrom`. This is semantically equivalent to an infinite approval. Note that accounts cannot have allowance issued by their operators."
      },
      "authorizeOperator(address)": {
        "details": "See {IERC777-authorizeOperator}."
      },
      "balanceOf(address)": {
        "details": "Returns the amount of tokens owned by an account (`tokenHolder`)."
      },
      "burn(uint256,bytes)": {
        "details": "See {IERC777-burn}. Also emits a {IERC20-Transfer} event for ERC20 compatibility."
      },
      "decimals()": {
        "details": "See {ERC20-decimals}. Always returns 18, as per the [ERC777 EIP](https://eips.ethereum.org/EIPS/eip-777#backward-compatibility)."
      },
      "defaultOperators()": {
        "details": "See {IERC777-defaultOperators}."
      },
      "granularity()": {
        "details": "See {IERC777-granularity}. This implementation always returns `1`."
      },
      "isOperatorFor(address,address)": {
        "details": "See {IERC777-isOperatorFor}."
      },
      "name()": {
        "details": "See {IERC777-name}."
      },
      "operatorBurn(address,uint256,bytes,bytes)": {
        "details": "See {IERC777-operatorBurn}. Emits {Burned} and {IERC20-Transfer} events."
      },
      "operatorSend(address,address,uint256,bytes,bytes)": {
        "details": "See {IERC777-operatorSend}. Emits {Sent} and {IERC20-Transfer} events."
      },
      "revokeOperator(address)": {
        "details": "See {IERC777-revokeOperator}."
      },
      "send(address,uint256,bytes)": {
        "details": "See {IERC777-send}. Also emits a {IERC20-Transfer} event for ERC20 compatibility."
      },
      "symbol()": {
        "details": "See {IERC777-symbol}."
      },
      "totalSupply()": {
        "details": "See {IERC777-totalSupply}."
      },
      "transfer(address,uint256)": {
        "details": "See {IERC20-transfer}. Unlike `send`, `recipient` is _not_ required to implement the {IERC777Recipient} interface if it is a contract. Also emits a {Sent} event."
      },
      "transferFrom(address,address,uint256)": {
        "details": "See {IERC20-transferFrom}. NOTE: Does not update the allowance if the current allowance is the maximum `uint256`. Note that operator and allowance concepts are orthogonal: operators cannot call `transferFrom` (unless they have allowance), and accounts with allowance cannot call `operatorSend` (unless they are operators). Emits {Sent}, {IERC20-Transfer} and {IERC20-Approval} events."
      }
    },
    "version": 1
  },
  "userdoc": {
    "kind": "user",
    "methods": {},
    "version": 1
  },
  "storageLayout": {
    "storage": [
      {
        "astId": 106,
        "contract": "contracts/Share.sol:Share",
        "label": "_balances",
        "offset": 0,
        "slot": "0",
        "type": "t_mapping(t_address,t_uint256)"
      },
      {
        "astId": 108,
        "contract": "contracts/Share.sol:Share",
        "label": "_totalSupply",
        "offset": 0,
        "slot": "1",
        "type": "t_uint256"
      },
      {
        "astId": 110,
        "contract": "contracts/Share.sol:Share",
        "label": "_name",
        "offset": 0,
        "slot": "2",
        "type": "t_string_storage"
      },
      {
        "astId": 112,
        "contract": "contracts/Share.sol:Share",
        "label": "_symbol",
        "offset": 0,
        "slot": "3",
        "type": "t_string_storage"
      },
      {
        "astId": 125,
        "contract": "contracts/Share.sol:Share",
        "label": "_defaultOperatorsArray",
        "offset": 0,
        "slot": "4",
        "type": "t_array(t_address)dyn_storage"
      },
      {
        "astId": 129,
        "contract": "contracts/Share.sol:Share",
        "label": "_defaultOperators",
        "offset": 0,
        "slot": "5",
        "type": "t_mapping(t_address,t_bool)"
      },
      {
        "astId": 135,
        "contract": "contracts/Share.sol:Share",
        "label": "_operators",
        "offset": 0,
        "slot": "6",
        "type": "t_mapping(t_address,t_mapping(t_address,t_bool))"
      },
      {
        "astId": 141,
        "contract": "contracts/Share.sol:Share",
        "label": "_revokedDefaultOperators",
        "offset": 0,
        "slot": "7",
        "type": "t_mapping(t_address,t_mapping(t_address,t_bool))"
      },
      {
        "astId": 147,
        "contract": "contracts/Share.sol:Share",
        "label": "_allowances",
        "offset": 0,
        "slot": "8",
        "type": "t_mapping(t_address,t_mapping(t_address,t_uint256))"
      }
    ],
    "types": {
      "t_address": {
        "encoding": "inplace",
        "label": "address",
        "numberOfBytes": "20"
      },
      "t_array(t_address)dyn_storage": {
        "base": "t_address",
        "encoding": "dynamic_array",
        "label": "address[]",
        "numberOfBytes": "32"
      },
      "t_bool": {
        "encoding": "inplace",
        "label": "bool",
        "numberOfBytes": "1"
      },
      "t_mapping(t_address,t_bool)": {
        "encoding": "mapping",
        "key": "t_address",
        "label": "mapping(address => bool)",
        "numberOfBytes": "32",
        "value": "t_bool"
      },
      "t_mapping(t_address,t_mapping(t_address,t_bool))": {
        "encoding": "mapping",
        "key": "t_address",
        "label": "mapping(address => mapping(address => bool))",
        "numberOfBytes": "32",
        "value": "t_mapping(t_address,t_bool)"
      },
      "t_mapping(t_address,t_mapping(t_address,t_uint256))": {
        "encoding": "mapping",
        "key": "t_address",
        "label": "mapping(address => mapping(address => uint256))",
        "numberOfBytes": "32",
        "value": "t_mapping(t_address,t_uint256)"
      },
      "t_mapping(t_address,t_uint256)": {
        "encoding": "mapping",
        "key": "t_address",
        "label": "mapping(address => uint256)",
        "numberOfBytes": "32",
        "value": "t_uint256"
      },
      "t_string_storage": {
        "encoding": "bytes",
        "label": "string",
        "numberOfBytes": "32"
      },
      "t_uint256": {
        "encoding": "inplace",
        "label": "uint256",
        "numberOfBytes": "32"
      }
    }
  }
}