{
  "address": "0xCf7Ed3AccA5a467e9e704C703E8D87F634fB0Fc9",
  "abi": [
    {
      "inputs": [
        {
          "internalType": "address",
          "name": "tokenAddress",
          "type": "address"
        },
        {
          "internalType": "address",
          "name": "shareAddres",
          "type": "address"
        }
      ],
      "stateMutability": "nonpayable",
      "type": "constructor"
    },
    {
      "inputs": [
        {
          "internalType": "address",
          "name": "user",
          "type": "address"
        },
        {
          "internalType": "uint256",
          "name": "amount",
          "type": "uint256"
        }
      ],
      "name": "__buyShareFromUser_workaround",
      "outputs": [],
      "stateMutability": "nonpayable",
      "type": "function"
    },
    {
      "inputs": [
        {
          "internalType": "address",
          "name": "user",
          "type": "address"
        },
        {
          "internalType": "uint256",
          "name": "amount",
          "type": "uint256"
        }
      ],
      "name": "buyShareFromUser",
      "outputs": [],
      "stateMutability": "nonpayable",
      "type": "function"
    },
    {
      "inputs": [
        {
          "internalType": "address",
          "name": "user",
          "type": "address"
        },
        {
          "internalType": "uint256",
          "name": "amount",
          "type": "uint256"
        }
      ],
      "name": "createSharesForUser",
      "outputs": [],
      "stateMutability": "nonpayable",
      "type": "function"
    },
    {
      "inputs": [
        {
          "internalType": "address",
          "name": "user",
          "type": "address"
        }
      ],
      "name": "shares",
      "outputs": [
        {
          "internalType": "uint256",
          "name": "",
          "type": "uint256"
        }
      ],
      "stateMutability": "view",
      "type": "function"
    },
    {
      "inputs": [
        {
          "internalType": "uint256",
          "name": "amount",
          "type": "uint256"
        }
      ],
      "name": "wrapShares",
      "outputs": [],
      "stateMutability": "nonpayable",
      "type": "function"
    },
    {
      "inputs": [
        {
          "internalType": "address",
          "name": "user",
          "type": "address"
        }
      ],
      "name": "wrappedShares",
      "outputs": [
        {
          "internalType": "uint256",
          "name": "",
          "type": "uint256"
        }
      ],
      "stateMutability": "view",
      "type": "function"
    }
  ],
  "transactionHash": "0x1328159ca4fc74cc0c3388ccde1fa066f86ca2b8fcbfbdc57cf0806f4178f1fa",
  "args": [
    "0xe7f1725E7734CE288F8367e1Bb143E90bb3F0512",
    "0x9fE46736679d2D9a65F0992F2272dE9f3c7fa6e0"
  ],
  "numDeployments": 1,
  "solcInputHash": "e3f9f114a7b64ca0610e703f39d9d823",
  "bytecode": "0x6080604052731820a4b7618bde71dce8cdc73aab6c95905fad24600460006101000a81548173ffffffffffffffffffffffffffffffffffffffff021916908373ffffffffffffffffffffffffffffffffffffffff16021790555034801561006557600080fd5b5060405162000f5638038062000f5683398181016040528101906100899190610175565b81600260006101000a81548173ffffffffffffffffffffffffffffffffffffffff021916908373ffffffffffffffffffffffffffffffffffffffff16021790555080600360006101000a81548173ffffffffffffffffffffffffffffffffffffffff021916908373ffffffffffffffffffffffffffffffffffffffff16021790555050506101b5565b600080fd5b600073ffffffffffffffffffffffffffffffffffffffff82169050919050565b600061014282610117565b9050919050565b61015281610137565b811461015d57600080fd5b50565b60008151905061016f81610149565b92915050565b6000806040838503121561018c5761018b610112565b5b600061019a85828601610160565b92505060206101ab85828601610160565b9150509250929050565b610d9180620001c56000396000f3fe608060405234801561001057600080fd5b50600436106100625760003560e01c80630926764814610067578063467ab57e146100835780634c070ecb1461009f578063c46c18e3146100bb578063ce7c2ac2146100eb578063ec18c5a91461011b575b600080fd5b610081600480360381019061007c9190610987565b610137565b005b61009d60048036038101906100989190610987565b6102d3565b005b6100b960048036038101906100b49190610987565b610568565b005b6100d560048036038101906100d091906109c7565b610664565b6040516100e29190610a03565b60405180910390f35b610105600480360381019061010091906109c7565b610709565b6040516101129190610a03565b60405180910390f35b61013560048036038101906101309190610a1e565b610751565b005b600260009054906101000a900473ffffffffffffffffffffffffffffffffffffffff1673ffffffffffffffffffffffffffffffffffffffff166323b872dd3384846040518463ffffffff1660e01b815260040161019693929190610a5a565b6020604051808303816000875af11580156101b5573d6000803e3d6000fd5b505050506040513d601f19601f820116820180604052508101906101d99190610ac9565b50806000808473ffffffffffffffffffffffffffffffffffffffff1673ffffffffffffffffffffffffffffffffffffffff16815260200190815260200160002054101561022557600080fd5b806000808473ffffffffffffffffffffffffffffffffffffffff1673ffffffffffffffffffffffffffffffffffffffff16815260200190815260200160002060008282546102739190610b25565b92505081905550806000803373ffffffffffffffffffffffffffffffffffffffff1673ffffffffffffffffffffffffffffffffffffffff16815260200190815260200160002060008282546102c89190610b59565b925050819055505050565b6103506040518060400160405280601281526020017f7573657220736861726573206265666f726500000000000000000000000000008152506000808573ffffffffffffffffffffffffffffffffffffffff1673ffffffffffffffffffffffffffffffffffffffff16815260200190815260200160002054610829565b600260009054906101000a900473ffffffffffffffffffffffffffffffffffffffff1673ffffffffffffffffffffffffffffffffffffffff166323b872dd3384846040518463ffffffff1660e01b81526004016103af93929190610a5a565b6020604051808303816000875af11580156103ce573d6000803e3d6000fd5b505050506040513d601f19601f820116820180604052508101906103f29190610ac9565b50806000808473ffffffffffffffffffffffffffffffffffffffff1673ffffffffffffffffffffffffffffffffffffffff168152602001908152602001600020541161043d57600080fd5b806000808473ffffffffffffffffffffffffffffffffffffffff1673ffffffffffffffffffffffffffffffffffffffff168152602001908152602001600020600082825461048b9190610b25565b92505081905550806000803373ffffffffffffffffffffffffffffffffffffffff1673ffffffffffffffffffffffffffffffffffffffff16815260200190815260200160002060008282546104e09190610b59565b925050819055506105646040518060400160405280601181526020017f75736572207368617265732061667465720000000000000000000000000000008152506000808573ffffffffffffffffffffffffffffffffffffffff1673ffffffffffffffffffffffffffffffffffffffff16815260200190815260200160002054610829565b5050565b806000808473ffffffffffffffffffffffffffffffffffffffff1673ffffffffffffffffffffffffffffffffffffffff16815260200190815260200160002060008282546105b69190610b59565b92505081905550600260009054906101000a900473ffffffffffffffffffffffffffffffffffffffff1673ffffffffffffffffffffffffffffffffffffffff166323b872dd3384846040518463ffffffff1660e01b815260040161061c93929190610a5a565b6020604051808303816000875af115801561063b573d6000803e3d6000fd5b505050506040513d601f19601f8201168201806040525081019061065f9190610ac9565b505050565b6000600360009054906101000a900473ffffffffffffffffffffffffffffffffffffffff1673ffffffffffffffffffffffffffffffffffffffff166370a08231836040518263ffffffff1660e01b81526004016106c19190610baf565b602060405180830381865afa1580156106de573d6000803e3d6000fd5b505050506040513d601f19601f820116820180604052508101906107029190610bdf565b9050919050565b60008060008373ffffffffffffffffffffffffffffffffffffffff1673ffffffffffffffffffffffffffffffffffffffff168152602001908152602001600020549050919050565b806000803373ffffffffffffffffffffffffffffffffffffffff1673ffffffffffffffffffffffffffffffffffffffff168152602001908152602001600020541061082657600360009054906101000a900473ffffffffffffffffffffffffffffffffffffffff1673ffffffffffffffffffffffffffffffffffffffff1663dcdc7dd033836040518363ffffffff1660e01b81526004016107f3929190610c43565b600060405180830381600087803b15801561080d57600080fd5b505af1158015610821573d6000803e3d6000fd5b505050505b50565b6108c1828260405160240161083f929190610d2b565b6040516020818303038152906040527f9710a9d0000000000000000000000000000000000000000000000000000000007bffffffffffffffffffffffffffffffffffffffffffffffffffffffff19166020820180517bffffffffffffffffffffffffffffffffffffffffffffffffffffffff83818316178352505050506108c5565b5050565b60008151905060006a636f6e736f6c652e6c6f679050602083016000808483855afa5050505050565b600080fd5b600073ffffffffffffffffffffffffffffffffffffffff82169050919050565b600061091e826108f3565b9050919050565b61092e81610913565b811461093957600080fd5b50565b60008135905061094b81610925565b92915050565b6000819050919050565b61096481610951565b811461096f57600080fd5b50565b6000813590506109818161095b565b92915050565b6000806040838503121561099e5761099d6108ee565b5b60006109ac8582860161093c565b92505060206109bd85828601610972565b9150509250929050565b6000602082840312156109dd576109dc6108ee565b5b60006109eb8482850161093c565b91505092915050565b6109fd81610951565b82525050565b6000602082019050610a1860008301846109f4565b92915050565b600060208284031215610a3457610a336108ee565b5b6000610a4284828501610972565b91505092915050565b610a5481610913565b82525050565b6000606082019050610a6f6000830186610a4b565b610a7c6020830185610a4b565b610a8960408301846109f4565b949350505050565b60008115159050919050565b610aa681610a91565b8114610ab157600080fd5b50565b600081519050610ac381610a9d565b92915050565b600060208284031215610adf57610ade6108ee565b5b6000610aed84828501610ab4565b91505092915050565b7f4e487b7100000000000000000000000000000000000000000000000000000000600052601160045260246000fd5b6000610b3082610951565b9150610b3b83610951565b925082821015610b4e57610b4d610af6565b5b828203905092915050565b6000610b6482610951565b9150610b6f83610951565b9250827fffffffffffffffffffffffffffffffffffffffffffffffffffffffffffffffff03821115610ba457610ba3610af6565b5b828201905092915050565b6000602082019050610bc46000830184610a4b565b92915050565b600081519050610bd98161095b565b92915050565b600060208284031215610bf557610bf46108ee565b5b6000610c0384828501610bca565b91505092915050565b600082825260208201905092915050565b50565b6000610c2d600083610c0c565b9150610c3882610c1d565b600082019050919050565b6000608082019050610c586000830185610a4b565b610c6560208301846109f4565b8181036040830152610c7681610c20565b90508181036060830152610c8981610c20565b90509392505050565b600081519050919050565b600082825260208201905092915050565b60005b83811015610ccc578082015181840152602081019050610cb1565b83811115610cdb576000848401525b50505050565b6000601f19601f8301169050919050565b6000610cfd82610c92565b610d078185610c9d565b9350610d17818560208601610cae565b610d2081610ce1565b840191505092915050565b60006040820190508181036000830152610d458185610cf2565b9050610d5460208301846109f4565b939250505056fea2646970667358221220179a2263b06c5a4ffb7171d0148447be86ded1fe087778c771dbbae0b3b5906264736f6c634300080d0033",
  "devdoc": {
    "kind": "dev",
    "methods": {},
    "version": 1
  },
  "userdoc": {
    "kind": "user",
    "methods": {},
    "version": 1
  },
  "storageLayout": {
    "storage": [
      {
        "astId": 2082,
        "contract": "contracts/Victim.sol:Victim",
        "label": "userShares",
        "offset": 0,
        "slot": "0",
        "type": "t_mapping(t_address,t_uint256)"
      },
      {
        "astId": 2086,
        "contract": "contracts/Victim.sol:Victim",
        "label": "wrappedUserShares",
        "offset": 0,
        "slot": "1",
        "type": "t_mapping(t_address,t_uint256)"
      },
      {
        "astId": 2089,
        "contract": "contracts/Victim.sol:Victim",
        "label": "_token",
        "offset": 0,
        "slot": "2",
        "type": "t_contract(IERC20)77"
      },
      {
        "astId": 2092,
        "contract": "contracts/Victim.sol:Victim",
        "label": "_share",
        "offset": 0,
        "slot": "3",
        "type": "t_contract(Share)2072"
      },
      {
        "astId": 2098,
        "contract": "contracts/Victim.sol:Victim",
        "label": "_erc1820",
        "offset": 0,
        "slot": "4",
        "type": "t_contract(IERC1820Registry)1813"
      }
    ],
    "types": {
      "t_address": {
        "encoding": "inplace",
        "label": "address",
        "numberOfBytes": "20"
      },
      "t_contract(IERC1820Registry)1813": {
        "encoding": "inplace",
        "label": "contract IERC1820Registry",
        "numberOfBytes": "20"
      },
      "t_contract(IERC20)77": {
        "encoding": "inplace",
        "label": "contract IERC20",
        "numberOfBytes": "20"
      },
      "t_contract(Share)2072": {
        "encoding": "inplace",
        "label": "contract Share",
        "numberOfBytes": "20"
      },
      "t_mapping(t_address,t_uint256)": {
        "encoding": "mapping",
        "key": "t_address",
        "label": "mapping(address => uint256)",
        "numberOfBytes": "32",
        "value": "t_uint256"
      },
      "t_uint256": {
        "encoding": "inplace",
        "label": "uint256",
        "numberOfBytes": "32"
      }
    }
  }
}